:1000000001308A00B5290000A026E531613AF237B7
:10001000EE34E3300000C424CD20200029308400D9
:1000200083130008031922280130F800F701F70BA9
:100030001728F80B16284A30F700F70B1D28202840
:10004000800B142808002F182728061228280616C7
:10005000831606128312AF182F28861230288616B0
:100060008316861283122F1937280613382806178D
:10007000831606138312AF193F288613402886176C
:10008000831686130000831286158316861148286E
:10009000831286118316861183120800B00183161D
:1000A000061600308312061A0130B0048316861635
:1000B00000308312861A0130F7000310F70D77081D
:1000C000B0048316061700308312061B0130F700B8
:1000D000F70DF70DFC30F7057708B0048316861787
:1000E00000308312861B0130F700F70DF70DF70D76
:1000F000F830F7057708B0043008F80008008316D8
:100100008611861006118312861083168610061635
:100110008616061786178312061583160611000029
:100120008312861583168611000083124E207808EC
:10013000AF00861183168611000083128615831680
:100140008611000083124E207808AE0086118316B7
:100150008611061286120613861383122F0EF700DD
:10016000F030F70577082E04F8007808AE00AE1FCF
:10017000BB2883168728AC08031DC0288610C12819
:10018000861483168610000083120611831606114A
:100190000000831286118316861183122D0EAE0085
:1001A0000F30AE052E08AF0023202D080F39AE000A
:1001B000AF00232008002830A5000C30A600013035
:1001C000A7000630A80086118316861183128610B8
:1001D00083168610831206118316061106128612E4
:1001E000061386138611861006110F308312A9009C
:1001F0000E200130A4002408033C031C072903300F
:10020000AF0023200530A9000E20A40AFB280230ED
:10021000AF0023200530A9000E20A4012408033CD0
:10022000031C1E2925302407840083130008A9001D
:10023000AC012908AD007F20A40A0E298A110A12F8
:10024000C429290B242927294030AA002829AA01DA
:1002500001302802AA072A088038AB00AC012B081D
:10026000AD007F2008002708073A031941290B3AFF
:1002700003194629063A03194E29023A031954294B
:1002800059290130A800A90021215E29AC010130C3
:10029000AD007F200230A9000E205E290130A800A9
:1002A0000230A90021215E29AC011030AD007F2071
:1002B0005E290130AC002708AD007F2008000B0844
:1002C000A4008B13831603178C170C140000000076
:1002D00083120313A41B8B1703170C087F39031910
:1002E000B3290313A40003170D080313A500031774
:1002F0000F080313A6002408A700332125080317BD
:100300008D000313260803178F0003130B08A700A3
:100310008B13831603178C170C1400000000831234
:100320000313A71B8B1703170C0D0E0D7F39031931
:10033000B3290313A40003170D080313A500031723
:100340000F080313A6002408A7003321250803176C
:100350008D000313260803178F008D0A03198F0AD7
:1003600003135F2903170313080003081F398300D1
:10037000A101A00183161F149F141F159F110730A0
:100380009C0083138312DB280C30A200A3012308F6
:10039000103C031CEC292308A8000130A9002121EE
:1003A000043003178D0000308F0003135F21643089
:1003B000A9000E20A2032208A8000230A9002121D2
:1003C0000B3003178D0000308F0003135F21643062
:0C03D000A9000E20A30AC729C42963005D
:02400E00713F00
:00000001FF
;PIC16F877A
;CRC=4B2C  CREATED="25-jul.-21 02:05"
