:1000000000308A00FC2800000A108A100A118207BA
:1000100048346F346C3461342034553441344334C3
:10002000683400340A108A100A11820744344934B3
:100030004D34413400342630840083130008031902
:100040002F280130F800F701F70B2428F80B23289C
:100050004A30F700F70B2A282D28800B21280800AA
:100060002A0EF039F7000F300605770486000000ED
:1000700006143A28061008000608F700060E0F3985
:10008000F8000800831606108610061183128610E9
:100090000F3083160605F03886008312061500001F
:1000A000061400003C207808AA0006100000061480
:1000B00000003C207808A90006100F3083160605C2
:1000C000860083122A0EF700F030F705770829041E
:1000D000F8007808A900A91B4828271C86102718B3
:1000E00086140000061100000610280EA9000F302B
:1000F000A9052908AA00302028080F39A900AA005C
:10010000302008002830A2000C30A3000130A400E9
:100110000630A5000610861006110F30831606055E
:1001200086000610861006110F308312A6001B20D1
:100130000130A1002108033C031CA6280330AA00BB
:1001400030200530A6001B20A10A9A280230AA0000
:1001500030200530A6001B20A1012108033C031C10
:10016000BD2822302107840083130008A600A701C0
:100170002608A8004220A10AAD280329240BC12883
:10018000C4284030A500C528A50101302302A507D9
:1001900025088038A600A7012608A80042200800EC
:1001A0002208073A0319DE280B3A0319E328063A16
:1001B0000319EB28023A0319F128F6280130A300AD
:1001C000A400BE20FB28A7010130A8004220023075
:1001D000A6001B20FB280130A3000230A400BE2093
:1001E000FB28A7011030A8004220FB280130A700FF
:1001F0002208A8004220080003081F3983000730A6
:100200009F00831382280530A3000130A400BE2084
:10021000A10121080420A10AF700A200D020093082
:100220002102031D09290730A3000230A400BE20CB
:10023000A10121081220A10AF700A200D020043059
:0A0240002102031D192903296300A0
:02400E00613F10
:00000001FF
;PIC16F628A
;CRC=A334  CREATED="25-jul.-21 01:08"
