:1000000001308A0059290000A0266F3A6F39203349
:100010007537E3346F376137E4370000A0266F3A55
:100020006F3920337537E3346F376137E4370001B8
:10003000A0266F3A6F392032653A653769326F0012
:100040002830840083130008031934280130F80095
:10005000F701F70B2928F80B28284A30F700F70B8F
:100060002F283228800B262808002E0EF039F700A2
:100070000F30060577048600000006143F2806109E
:1000800008000608F700060E0F39F800080083166E
:10009000061086100611831286100F30831606058F
:1000A000F038860083120615000006140000412077
:1000B0007808AE0006100000061400004120780801
:1000C000AD0006100F3083160605860083122E0E33
:1000D000F700F030F70577082D04F8007808AD0038
:1000E000AD1B4D282B1C86102B1886140000061102
:1000F000000006102C0EAD000F30AD052D08AE002F
:1001000035202C080F39AD00AE003520080028300E
:10011000A4000C30A5000130A6000630A700061090
:10012000861006110F30831606058600061086100D
:1001300006110F308312A80020200130A3002308ED
:10014000033C031CAB280330AE0035200530A8006B
:100150002020A30A9F280230AE0035200530A800D9
:100160002020A3012308033C031CC22824302307BA
:10017000840083130008A800AB012808AC004720C6
:10018000A30AB2288A110A127029280BC828CB2882
:100190004030A900CC28A90101302702A90729086D
:1001A0008038AA00AB012A08AC00472008002608C6
:1001B000073A0319E5280B3A0319EA28063A031906
:1001C000F228023A0319F828FD280130A700A800F8
:1001D000C5200229AB010130AC0047200230A80045
:1001E000202002290130A7000230A800C5200229E2
:1001F000AB011030AC00472002290130AB002608CB
:10020000AC00472008000B08A3008B1383160317CC
:100210008C170C140000000083120313A31B8B1710
:1002200003170C087F39031957290313A300031779
:100230000D080313A40003170F080313A5002308D8
:10024000A600D720240803178D00031325080317E1
:100250008F0003130B08A6008B13831603178C174C
:100260000C140000000083120313A61B8B17031746
:100270000C0D0E0D7F39031957290313A300031723
:100280000D080313A40003170F080313A500230888
:10029000A600D720240803178D0003132508031791
:1002A0008F008D0A03198F0A031303290317031301
:1002B000080003081F398300FF30A000A201A1013C
:1002C00083161F149F141F159F1107309C00831362
:1002D0001F3085000030860087008312A000872829
:1002E000201120088316870083120715051C9E29FC
:1002F000201020088316870083120710A010200802
:1003000083168700831287140130A700A800C52038
:10031000043003178D0000308F00031303210130D8
:10032000A7000230A800C5204430A600D7206530C1
:10033000A600D7207230A600D720E829851CC62940
:10034000201020088316870083120714A0102008AD
:1003500083168700831287100130A700A800C520EC
:100360000E3003178D0000308F000313032101307E
:10037000A7000230A800C5204930A600D7207A3057
:10038000A600D7207130A600D720E8292010200829
:100390008316870083120710A01020088316870099
:1003A000831287100130A700A800C520183003175A
:1003B0008D0000308F00031303210130A7000230AD
:1003C000A800C5203A30A600D7202830A600D720A4
:0403D000702963002D
:02400E00713F00
:00000001FF
;PIC16F876A
;CRC=0039  CREATED="24-jun.-21 15:58"
