:1000000004308A004D2C0000D630EC3772104122AB
:100010004310251A6C320000D4326D386539613ACC
:10002000753961102518311732338021373084003B
:100030000008031929280130A100A001A00B1E28E7
:10004000A10B1D284A30A000A00B24282728800BD4
:100050001B2808003E0EF039A0000F3006052004D2
:100060008600000006143428061008000608A000C8
:10007000060E0F39A100080083160610861006111F
:10008000831286100F3083160605F038860083121F
:10009000061500000614000036202108BE000610D8
:1000A00000000614000036202108BD0006100F30A5
:1000B00083160605860083123E0EA000F030A005D0
:1000C00020083D04A1002108BD00BD1B42283B1CA7
:1000D00086103B18861400000611000006103C0E26
:1000E000BD000F30BD053D08BE002A203C080F3979
:1000F000BD00BE002A2008002830AC000C30AD0046
:100100000130AE000630AF000610861006110F3029
:100110008316060586000610861006110F3083121E
:10012000B70016200130AB002B08033C031CA028AD
:100130000330BE002A200530B7001620AB0A9428F1
:100140000230BE002A200530B7001620AB012B0874
:10015000033C031CB6282C302B0784000008B00099
:10016000BB013008BC003C20AB0AA7288A11612CD7
:100170008E30A0002C08A1002B08A200A301A1082A
:10018000031DCC282208A100A2010830A002A1086A
:10019000031DCC28A001D4280310A11BD328A20D35
:1001A000A10DA003CC28A1138A11932C380BD928B8
:1001B000DC284030B900DD28B90101303702B90729
:1001C00039088038BA00BB013A08BC003C2008005E
:1001D0003608073A0319F6280B3A0319FB28063AA2
:1001E00003190329023A031909290E290130B7001E
:1001F000B800D6201329BB010130BC003C200230DE
:10020000B700162013290130B7000230B800D620FD
:100210001329BB011030BC003C2013290130BB0066
:100220003608BC003C2008000B08AC008B1383167A
:1002300003178C170C140000000083120313AC1B6F
:100240008B1703184B2903170C087F390313AC00D5
:1002500003170D080313AD0003170F080313AE00B7
:100260002C08B600E8202D0803178D0003132E0874
:1002700003178F0003130B08AF008B1383160317AC
:100280008C170C140000000083120313AF1B8B1794
:10029000AB0B4B296A2903170C0D0E0D7F39031385
:1002A000AC0003170D080313AD0003170F08031369
:1002B000AE002C08B600E8202D0803178D000313AC
:1002C0002E0803178F008D0A03198F0A03100313DA
:1002D000AB0B142908000408B200AC1F7729B21731
:1002E000321EB20AAB09AC09AB0A0319AC0A2C0ED8
:1002F000F038AE00AE07E23EAF00323EB1002C084F
:100300000F39AF07AF07B107E93EB000B007B0073C
:100310002B0E0F39B007B107B00DB10DB109B10DFA
:100320002B080F39B107AE0D0730AD000A30B10709
:10033000B003031C9729B007AF03031C9B29AF0729
:10034000AE03031C9F29AE07AD03031CA3292D3068
:10035000840007303205321384033205031DB729A8
:10036000321A840A321AB7292030A000D42984070F
:1003700031300402031932170008A000031DC829F8
:10038000321BC829321ADC29B219C8292030D329D6
:10039000B21FD0292D30A00084033213B213D42908
:1003A000B21532123030A007AC010408AB002008AF
:1003B000B600E8202B088400840A321FB8298A116D
:1003C000B02C36080319512ABE003A080319512AE5
:1003D000BE070318F2297F30BE02031C512A0319FD
:1003E000512AF6298130BE070318512A3E08A00081
:1003F000A101A201A3013708C200C2173808C10039
:100400003908C0001830BE00BF01401C1F2A3D083B
:10041000A307031C112AA20A031D112AA10A03190A
:10042000BF173C08A207031C182AA10A0319BF170B
:100430003B08B800B8173808A1070318BF17BF0D4D
:10044000A10CA20CA30CC20CC10CC00C0310BE0B5F
:10045000042A0130A0070318512AA11B362AC20D15
:10046000A30DA20DA10DA0030319512AC21F472AF3
:10047000A30A031D472AA20A031D472AA10A031D36
:10048000472AA10CA20CA30CA00A0319512A370871
:10049000BF003B08BF06BF1F4F2AA117552AA11353
:1004A000552AA001A101A201A30108003608B63C0B
:1004B000B600A3013708BA00B7170310B70CB80C81
:1004C000B90CA30CA20CA10CA00CB60B5D2ABA1F90
:1004D000742AA009A109A209A309A00A0319A10A63
:1004E0000319A20A0319A30A08008318792A3E30C7
:1004F0008400A001A101A201A301BE01BF01C001AE
:10050000C1013D083C043B043A040319B72A2030DA
:10051000C2000310B60DB70DB80DB90DBE0DBF0D5D
:10052000C00DC10D3D084102031DA02A3C08400238
:10053000031DA02A3B083F02031DA02A3A083E02E1
:10054000031CB12A3A08BE023B08031C3B0FBF0242
:100550003C08031C3C0FC0023D08031C3D0FC102B8
:100560000314A00DA10DA20DA30DC20B892A3E08F4
:100570008000840A3F088000840A40088000840AC2
:100580004108800008000408B0002F08B1000319DA
:10059000E22A2E08B9002D08B8002C08B7002B0855
:1005A000B600BD01BC012030BB008230BA00E121A1
:1005B0002308AE002208AD002108AC002008AB00E3
:1005C000B10BC92A2E08B9002D08B8002C08B700B5
:1005D0002B08B60056222308AE002208AD002108E1
:1005E000AC002008AB00AE1F022BB003B016AB0965
:1005F000AC09AD09AE09AB0A0319AC0A0319AD0A7F
:100600000319AE0A3B30B5009A30B400CA30B300CB
:10061000B2010A30B1002F080319B00A83142B303D
:1006200084002E08B9002D08B8002C08B7002B084C
:10063000B6003508BD003408BC003308BB003208E2
:10064000BA0075222108A008031D392B2F0A310298
:100650000319392B300803193B2B0F3931020319C9
:10066000332B03186B2BB01B6B2B301B3B2B203019
:10067000672B2030B005B01E492BB0122F08031D88
:10068000B0032008B0002D30B600E8203008A000EC
:10069000B0012F083102031D572B2008B0002E3067
:1006A000B600E8203008A0002030B005003030301F
:1006B000B01E672BB0122F08031DB0032008B00036
:1006C0002D30B600E8203008A000B0013030A0077F
:1006D0002008B600E82083103508B9003408B800B7
:1006E0003308B7003208B600BD01BC01BB010A30B7
:1006F000BA0075222308B5002208B4002108B3000F
:100700002008B200B10B0E2B8A11CC2C0408B000CB
:100710002F08B1000319A52B2E08B9002D08B80029
:100720002C08B7002B08B600BD01BC012030BB006F
:100730008230BA00E1212308AE002208AD00210872
:10074000AC002008AB00B10B8C2B2E08B9002D0893
:10075000B8002C08B7002B08B60056222308AE00BC
:100760002208AD002108AC002008AB00AE1FC52B4D
:10077000B003B016AB09AC09AD09AE09AB0A031959
:10078000AC0A0319AD0A0319AE0A3B30B5009A3022
:10079000B400CA30B300B2010A30B1002F08031907
:1007A000B00A83142B3084002E08B9002D08B8003D
:1007B0002C08B7002B08B6003508BD003408BC0073
:1007C0003308BB003208BA0075222108A008031DB7
:1007D000FC2B2F0A31020319FC2B30080319FE2BC6
:1007E0000F3931020319F62B0318322CB01B322CAF
:1007F000301BFE2B20302D2C2030B005B01E0D2CD0
:10080000B0122F08031DB0032008B0002D300C1EBD
:10081000072C99003008A000B0012F083102031DF9
:100820001C2C2008B0002E300C1E142C990030080F
:10083000A0002030B00500303030B01E2D2CB0129A
:100840002F08031DB0032008B0002D300C1E262CED
:1008500099003008A000B0013030A00720080C1E1D
:100860002F2C990083103508B9003408B8003308DC
:10087000B7003208B600BD01BC01BB010A30BA00A6
:1008800075222308B5002208B4002108B30020080F
:10089000B200B10BD12B8A11D92C03081F39830068
:1008A000193083169900A630980090308312980072
:1008B00083161F149F141F159F1107309C0083126D
:1008C0007C2883161F109F141F159F151F1383125A
:1008D0001F179F1783169F1783121F140030A10044
:1008E0001F08C73921049F008C1E742C1A08A4000D
:1008F0001430B700162024080C1E7C2C99001F15FC
:100900001F19802C83161E088312A1001E08A60042
:100910002108A5000310260CA300250CA200AB00A3
:100920002308AC00B8282308AA002208A90021083F
:10093000A8002008A7000130B700B800D620043076
:1009400003178D0000308F0003100A300313AB0033
:100950001421023084002608AC002508AB006B2966
:100960000130B7000230B800D6200C3003178D00DC
:1009700000308F0003100C300313AB001421C9307A
:1009800084002A08AE002908AD002808AC0027081A
:10099000AB000230AF00C32AC93084002A08AE0081
:1009A0002908AD002808AC002708AB000230AF00D2
:1009B000862B0A300C1EDA2C99000D300C1EDE2C12
:0609C0009900742C630095
:02400E00713F00
:00000001FF
;PIC16F873A
;CRC=9330  CREATED="28-jul.-21 09:43"
