:1000000000308A0035280000130807398C00130CD3
:100010008D008D0C8D0C1F308D050D08150784008B
:100020008D018D0A8C0A15288D0D8C0B14289408CF
:1000300003191D280D08800420288D090D0880054E
:1000400008001330840000080319342801308D00A3
:100050008C018C0B29288D0B28284A308C008C0BA6
:100060002F283228800B2628080003081F39830018
:10007000003083168600860183128601303091009D
:100080001108373C031C63281108930001309400C9
:1000900095010420110893009401803095000420FC
:1000A000C830930021201108930094019501042089
:1000B000110893009401803095000420C83093000B
:1000C0002120910A40283730920012082F3C031853
:1000D000882812089300013094009501042012082A
:1000E00093009401803095000420C83093002120B3
:1000F00012089300940195010420120893009401C2
:10010000803095000420C830930021209203652898
:040110003E28630022
:02400E00F13F80
:00000001FF
;PIC16F84A
;CRC=D24C  CREATED="22-jul.-21 20:15"
