:1000000000308A00952800001F0894001E08930005
:100010001D0892001C089100B22814089F001308C4
:100020009E0012089D0011089C004130A300C630BC
:10003000A2004E30A1006D30A0002030A800A40125
:10004000A501A601A7011F088F001E088E001D082C
:100050008D001C088C0003100C1C3C282008A407F1
:1000600021080318210FA50722080318220FA6074D
:1000700023080318230FA707A70CA60CA50CA40C94
:100080008F0C8E0C8D0C8C0CA80B2B2839300C0788
:1000900091000D08920030300318313092070E089D
:1000A000930000300318013093070F0894000030CC
:1000B00003180130940713088C0014088D008E017A
:1000C0008F010D089E000C089D001E08A0001D0851
:1000D0009F00A2010630A1008D018E018C018F01CD
:1000E0002208031D76282108031990281030A30048
:1000F00003109F0DA00D8C0D8F0D22080F02031D04
:10010000832821080C02031C8C2821088C02031C64
:100110008F0322088F0203148D0D8E0DA30B7828F8
:100120000C088D000F088E00BF2803081F398300BC
:1001300090011F30831685000030860079308312CD
:100140009500243096003030970019309800123016
:10015000990002309A009B019F019E019D01013090
:100160009C00042883168601403083128600051CFB
:10017000CB288316051483120518B9280D280D08FD
:100180009B0015301B07840000089C008316860125
:0A01900083121C088600B7286300E4
:02400E00F13F80
:00000001FF
;PIC16F83
;CRC=72B2  CREATED="23-jul.-21 21:02"
