:1000000002308A00A72A00000A108A100A1182070B
:10001000313432343334343435343634373438349C
:1000200039342A34303423340C287536F3302036F2
:100030006110F43263366110310500000C2875360A
:10004000F33020366110F43263366110A53A0A00AD
:100050008C216539F230E43AF230A030E23465396F
:10006000F43000018C216539F230E43AF230A031ED
:100070006539F230E43000003B308400831300081F
:10008000031950280130F800F701F70B4528F80B49
:1000900044284A30F700F70B4B284E28800B4228A3
:1000A0000800420EF039F7000F3008057704880089
:1000B000000008145B28081008000808F700080E64
:1000C0000F39F800080083160810881008118312F1
:1000D00088100F3083160805F03888008312081541
:1000E0000000081400005D207808C200081000001D
:1000F000081400005D207808C10008100F30831636
:10010000080588008312420EF700F030F7057708E3
:100110004104F8007808C100C11B69283F1C881001
:100120003F1888140000081100000810400EC1009C
:100130000F30C1054108C200512040080F39C100ED
:10014000C200512008002830B6000C30B700013042
:10015000B8000630B9000810881008110F30831657
:10016000080588000810881008110F308312BB00A2
:100170003C200130B5003508033C031CC728033080
:10018000C20051200530BB003C20B50ABB2802301C
:10019000C20051200530BB003C20B5013508033CAE
:1001A000031CDE2836303507840083130008BA00AC
:1001B000BF013A08C0006320B50ACE288A110A128E
:1001C000BC2A8A110A12BD2A3C0BE728EA284030D3
:1001D000BD00EB28BD0101303B02BD073D08803862
:1001E000BE00BF013E08C000632008003A08073A7D
:1001F000031904290B3A03190929063A031911298D
:10020000023A031917291C290130BB00BC00E42065
:100210002129BF010130C00063200230BB003C2017
:1002200021290130BB000230BC00E4202129BF019C
:100230001030C000632021290130BF003A08C000FF
:10024000632008000B08B5008B13831603178C1767
:100250000C140000000083120313B51B8B17031747
:100260000C087F39031976290313B50003170D080D
:100270000313B60003170F080313B7003508BA00BD
:10028000F620360803178D000313370803178F0075
:1002900003130B08B8008B13831603178C170C1469
:1002A0000000000083120313B81B8B1703170C0DFB
:1002B0000E0D7F39031976290313B50003170D08B6
:1002C0000313B60003170F080313B7003508BA006D
:1002D000F620360803178D000313370803178F0025
:1002E0008D0A03198F0A0313222903170313080029
:1002F000B501A00A2008213C0318F9292308031995
:100300008829013A03198E29033A03199429992956
:10031000DE3083168600831286009929BE3083164C
:1003200086008312860099297E3083168600831208
:100330008600211CA52906081E391E3C031DA42980
:1003400021102208B500A201F82906081E391E3C1A
:100350000319F32906080239031DB029B601C4297F
:1003600006080439031DB7290130B600C429060860
:100370000839031DBE290230B600C4290608103909
:10038000031DC4290330B6003608B7000330B80097
:10039000F701F801370803103818F707F70CF80CC5
:1003A000B818F707F70CF80C3819F707F70CF80C22
:1003B000B819F707F70CF80C381AF707F70CF80C10
:1003C000B81AF707F70CF80C381BF707F70CF80CFE
:1003D000B81BF707F70CF80C230878070420F8007F
:1003E000A2002114F829A30A2308033C0319A3013E
:1003F000A001FE308316860083123508F8008A11AA
:100400000A12CD2A0B08B7008B13831603178C171B
:100410000C140000000083120313B71B8B17031882
:10042000392A03170C087F390313B70003170D0887
:100430000313B80003170F080313B9003708BA00F5
:10044000F620380803178D000313390803178F00AF
:1004500003130B08BA008B13831603178C170C14A5
:100460000000000083120313BA1B8B17B60B392A46
:10047000582A03170C0D0E0D7F390313B70003170D
:100480000D080313B80003170F080313B90037084A
:10049000BA00F620380803178D0003133908031734
:1004A0008F008D0A03198F0A03100313B60B022A5B
:1004B0008A110A12E62A3908F80138020318632A59
:1004C0003808F7006F2AF7010830BA00B80DF70DA9
:1004D000390877020318F700F80DBA0B662A0800EE
:1004E00078083608B8006430B9005B227708B60097
:1004F00078083030031D832AB71C8A2AB7198A2A44
:10050000371A2030862AB71137123714F8077808BF
:10051000BA00F6203608B8000A30B9005B22770826
:10052000B60078083030031D9B2AB7199F2A371C64
:100530009F2A371A2030F8077808BA00F6203030A2
:10054000B6073608BA00F6208A110A12EB2A030809
:100550001F398300AB01AA0183161F149F141F15B6
:100560009F1107309C0083138312A0012110A20168
:10057000A301A401A501A328E128831681138312F6
:10058000AD01143003178D0000308F0003132221BA
:100590002D08023C031CEF2A78297808AC00AC082F
:1005A0000319EE2A2E302D07840083132C088000B7
:1005B000AD0A01302D07B5001E3003178D00003045
:1005C0008F00031010300313B600022A3508B6005E
:1005D0001B30B700702A0A30BA00F620C82AB401CE
:1005E0003408023C031C042B31303407840083138D
:1005F000340803178D0083168C130C1483120C0817
:1006000080000313B40AF02A31082E02031D272BA1
:1006100032082F02031D272B33083002031D272B1E
:10062000283003178D0000308F000313222183161A
:100630000510831205140230B500FA30BB003C20CF
:10064000B50B1D2B8316051083120510352B323088
:1006500003178D0000308F00031322210230B500F4
:0E066000FA30BB003C20B50B302BC02A6300E3
:0642000031003200330022
:02400E00713F00
:00000001FF
;PIC16F877A
;CRC=052A  CREATED="06-jul.-21 08:35"
