:1000000004308A00232C0000FF00030E8301A100AE
:100010000A08A0008A010408A2007708A300780853
:10002000A4007908A5007A08A600831383128B1E0A
:100030001B280B192C28220884002308F700240809
:10004000F8002508F9002608FA0020088A00210E89
:100050008300FF0E7F0E09008A110A122F28A70FB6
:100060003528831608108312081432082702031D4E
:100070003D2883160810831208109E3081000B1152
:100080008A110A121B2883160108C0390138810021
:100090009E30831281008B16C0308B048A110A12A5
:1000A0003B2C8E30F7004108F8004008F900FA01B7
:1000B000F808031D65287908F800F9010830F702EF
:1000C000F808031D6528F7016D280310F81B6C283C
:1000D000F90DF80DF7036528F8138A110A12562C4A
:1000E00080308318E106E601E7015D08E50061085C
:1000F000E5065C0803196029E400F70060080319AD
:100100006929E40203190529031CC3286108EA00D0
:10011000EA176208E9006308E800E7010310EA0C47
:10012000E90CE80CE70CE40B8D28E51F9A2866140F
:100130007D296610641066165F308400831392294F
:100140006612E51BAD28641CB828EA0CE90CE80C23
:10015000E70CF70A03197829B828EA1BBB28031013
:10016000E70DE80DE90DEA0DF70303197829AD282D
:100170006617252966135D08E500E51FC128EA1703
:100180007129EA1371296008E400F7005C08E402B1
:100190005D08EA00EA175E08E9005F08E800E70189
:1001A0000310EA0CE90CE80CE70CE40BCF28E51F80
:1001B000DC28E6147D29E6106410E616633084001E
:1001C00083139229E612E51BEF28641CFA28EA0C37
:1001D000E90CE80CE70CF70A03197829FA28EA1B5E
:1001E000FD280310E70DE80DE90DEA0DF7030319EB
:1001F0007829EF28E6172529E6136108E500E51FB1
:100200000329EA177129EA1371296108EA00EA173C
:100210006208E9006308E800E51F1229EA13661581
:100220007D296611E70164105F30840083139229F1
:10023000E51B3B295D08E500641C2529EA0CE90C57
:10024000E80CE70CF70A03197829E71F3629E80AB2
:10025000031D3629E90A031D3629EA0A031D36293A
:10026000EA0CE90CE80CF70A03197829661BBA288E
:10027000E61BFC285A298030EA06EA1F43297D291B
:100280006108E50050295D08E500EA08031D5029D2
:10029000E908031D5029E808031D5029F7017129B9
:1002A000EA1B5A290310E70DE80DE90DEA0DF70BDB
:1002B00050297829E51F5E29EA177129EA13712967
:1002C0006008F7006108EA006208E9006308E800D6
:1002D00071295C08F7005D08EA005E08E9005F0824
:1002E000E8006A08F8006908F9006808FA00B0290F
:1002F000F701F801F901FA01B029E701E809E90974
:10030000EA09E709E70A031D8B29E80A031D8B297F
:10031000E90A0319EA0A66189928E618DB2866191B
:10032000112940290008E807031C9C29E90A031D3C
:100330009C29EA0A0319641484030008E907031CD2
:10034000A429EA0A0319641484030008801F803A70
:10035000EA0703186414661AA028E61AE228182986
:10036000080083144708DF004608DE004508DD006A
:100370004408DC004B08E3004A08E2004908E100B9
:100380004808E00070207A08DB007908DA00780875
:10039000D9007708D80083145708DF005608DE001C
:1003A0005508DD005408DC005308E3005208E20061
:1003B0005108E1005008E00070205B08DF005A0897
:1003C000DE005908DD005808DC007A08E3007908EF
:1003D000E2007808E1007708E0005C0803195D2A74
:1003E000E400600803195D2AE4070318FE297F3042
:1003F000E402031C5D2A03195D2A022A8130E40706
:1004000003185D2A6408F700F801F901FA015D0894
:10041000E800E8175E08E7005F08E6001830E4002F
:10042000E501661C2B2A6308FA07031C1D2AF90A3A
:10043000031D1D2AF80A0319E5176208F907031CB2
:10044000242AF80A0319E5176108DE00DE175E08A2
:10045000F8070318E517E50DF80CF90CFA0CE80C91
:10046000E70CE60C0310E40B102A0130F707031821
:100470005D2AF81B422AE80DFA0DF90DF80DF70375
:1004800003195D2AE81F532AFA0A031D532AF90AA1
:10049000031D532AF80A031D532AF80CF90CFA0C11
:1004A000F70A03195D2A5D08E5006108E506E51F06
:1004B0005B2AF817612AF813612AF701F801F9019C
:1004C000FA017A08DB007908DA007808D9007708A1
:1004D000D80083144F08DF004E08DE004D08DD0011
:1004E0004C08DC004B08E3004A08E2004908E10040
:1004F0004808E00070205B08DF005A08DE00590859
:10050000DD005808DC007A08E3007908E20078088A
:10051000E1007708E0005C080319502BE800600850
:100520000319502BE802031C9A2A7F30E8070318AE
:10053000502BA02A8130E802031C502B0319502BAA
:100540006808F700F801F901FA01E7015D08E60023
:10055000E6175E08E5005F08E4001930E80063086C
:10056000E4020318C32A0130E5020318C32AE60295
:100570000318C32AE7020318C32AE70AE60AE50AB2
:100580006308E407F52A6208E5020318DE2A013051
:10059000E6020318DE2AE7020318DE2AE70AE60A63
:1005A0006208E5076308E407031CF52AE50A031D52
:1005B000F52AE60A031DF52AE70AF52A61088038BC
:1005C000E6020318F42A0130E7020318F42AE70AC6
:1005D00061088038E6076208E507031CD22AE60AAC
:1005E000031DD22AE70AD22A7A14E80BF82A032B31
:1005F0000310E40DE50DE60DE70D0310FA0DF90DFE
:10060000F80DE90DAF2A691C0B2B0310F80CF90C3F
:10061000FA0CE90C0E2BF7030319502BE91B372BAF
:100620000310E40DE50DE60DE70D6308E402031881
:10063000232B0130E5020318232BE6020318232B9A
:10064000E702031C462B6208E50203182E2B01303B
:10065000E60203182E2BE702031C462B61088038A4
:10066000E6020318372B0130E702031C462BFA0A77
:10067000031D462BF90A031D462BF80A031D462BC2
:10068000F70A0319502BF80CF90CFA0C5D08E80076
:100690006108E806E81F4E2BF817542BF813542B6B
:1006A000F701F801F901FA017A08DB007908DA00AC
:1006B0007808D9007708D80083107A08DF00790815
:1006C000DE007808DD007708DC005308E3005208FC
:1006D000E2005108E1005008E00070208A110A127F
:1006E0007C2C8E30F7004008F7024108F9004208E0
:1006F000F800F917F7080319882B0310F908031DF0
:10070000842BF8080319882BF90CF80CF70B7D2BB8
:10071000C11F8F2BF809F909F80A0319F90A8A1180
:100720000A12852CC2014008C100C401C301C601E0
:10073000B430C500C8010730C700CA011C30C90069
:1007400043084102CB004208CC004408031C440F7C
:10075000CC0247084902F7004A08FA004808031C7F
:10076000480FFA027708CD007A08CE004C08D00076
:100770004B08CF004E08D2004D08D1001030D300F6
:10078000F701FA01D00CCF0C031CCC2B5108F70752
:100790000318FA0A5208FA07FA0CF70CF90CF80CCD
:1007A000D30BC22B7908CC007808CB004308450254
:1007B000F7004608FA004408031C440FFA027708C1
:1007C000CD007A08CE004C08D0004B08CF004E0870
:1007D000D2004D08D100F801F901F701FA015208E1
:1007E000031DF52B510803190F2C1030D3000310F3
:1007F000CF0DD00DF70DFA0D52087A02031D022C11
:1008000051087702031C0B2C5108F702031CFA0352
:100810005208FA020314F80DF90DD30BF72B7908DF
:10082000CC007808CB0047087807F8007908FA0070
:1008300048080318480FFA077A08F9007808B20048
:100840008A110A128A2C03081F39830083161F1489
:100850009F141F159F1107309C0083131F109F14B6
:100860001F159F151F1383121F179F1783169F179E
:1008700083121F1443280030F8001F08C73978047A
:100880009F000230F700F70B432C462C00001F1589
:100890001F19482C1E08FA0083161E088312BD007B
:1008A0001E08BE00C1003D08C00051287A08C300E0
:1008B0007908C2007808C1007708C0007A08C7002C
:1008C0007908C6007808C5007708C400CB01CA01C2
:1008D000C901C801CF01C030CE007F30CD008830C3
:1008E000CC00D301D201D101D001D701D6013430DF
:1008F000D5008630D400B1297A08C3007908C20037
:100900007808C1007708C000712B7808BF003F0845
:08091000C000922B3B2C630098
:02400E007A3FF7
:00000001FF
;PIC16F877A
;CRC=2971  CREATED="30-jun-20 16:24"
