:1000000083161F3085000030860083123F30860043
:10001000051806285620051C06280E2806308600DE
:1000200005180E285620051C0E2816285B30860061
:10003000051816285620051C16281E284F30860045
:1000400005181E285620051C1E2826286630860006
:10005000051826285620051C26282E286D308600D7
:1000600005182E285620051C2E2836287D3086009F
:10007000051836285620051C36283E2807308600ED
:1000800005183E285620051C3E2846287F3086004D
:10009000051846285620051C46284E286F30860035
:1000A00005184E285620051C4E28062002308E00CA
:1000B00008308D001C308C008C0B5C288D0B5C286C
:0600C0008E0B5C28080015
:02400E00F93F78
:00000001FF
