:1000000002308A00072A0000FF00030E8301A500CA
:100010007F08A4000A08AF008A01A40E0408A60005
:100020002008A7002108A8002208A9002308AA0088
:1000300003170D080313AB0003170F080313AC00DD
:1000400003170C080313AD0003170E080313AE00CB
:10005000831383128C308400801E30288C1A512820
:10006000260884002708A0002808A1002908A2006B
:100070002A08A3002B0803178D0003132C0803176D
:100080008F0003132D0803178C0003132E0803178A
:100090008E0003132F088A00250E8300FF0E7F0EAB
:1000A00009008A1153288C1E53281A08B0008C129C
:1000B0008A113028F232E334E2346537E437BD1276
:1000C00031220000383084000008031975280130FF
:1000D000A100A001A00B6A28A10B69284A30A0004A
:1000E000A00B70287328800B672808003F0EF0399A
:1000F000A0000F30060520048600000006148028AA
:10010000061008000608A000060E0F39A10008001E
:100110008316061086100611831286100F30831680
:100120000605F0388600831206150000061400004C
:1001300082202108BF000610000006140000822063
:100140002108BE0006100F308316060586008312B4
:100150003F0EA000F030A00520083E04A1002108B9
:10016000BE00BE1B8E283C1C86103C188614000066
:100170000611000006103D0EBE000F30BE053E0801
:10018000BF0076203D080F39BE00BF007620080072
:100190002830B2000C30B3000130B4000630B50096
:1001A0000610861006110F3083160605860006100D
:1001B000861006110F308312B80062200130B100A2
:1001C0003108033C031CEC280330BF0076200530C7
:1001D000B8006220B10AE0280230BF007620053066
:1001E000B8006220B1013108033C031C02293230FF
:1001F000310784000008B600BC013608BD00882025
:10020000B10AF3288A111B2A390B07290A29403021
:10021000BA000B29BA0101303802BA073A0880380F
:10022000BB00BC013B08BD00882008003708073A26
:10023000031924290B3A03192929063A03193129EC
:10024000023A031937293C290130B800B9000421CA
:100250004129BC010130BD0088200230B800622075
:1002600041290130B8000230B90004214129BC0104
:100270001030BD00882041290130BC003708BD0086
:10028000882008000B08B2008B13831603178C1705
:100290000C140000000083120313B21B8B17031809
:1002A000792903170C087F390313B20003170D08CF
:1002B0000313B30003170F080313B4003208B70089
:1002C0001621330803178D000313340803178F001A
:1002D00003130B08B5008B13831603178C170C142C
:1002E0000000000083120313B51B8B17B10B792993
:1002F000982903170C0D0E0D7F390313B200031755
:100300000D080313B30003170F080313B4003208DA
:10031000B7001621330803178D00031334080317A1
:100320008F008D0A03198F0A03100313B10B4229A2
:100330008A112E2A3808A10137020318A22937088A
:10034000A000AE29A0010830B900B70DA00D3808F3
:1003500020020318A000A10DB90BA5290800203028
:10036000321E3030B3003108A000B11FBF29A009F0
:10037000A00A2008B1002D30B300B21732143108A2
:10038000B7006430B8009A212008B100303021074E
:10039000B4003108B7000A30B8009A213030200785
:1003A000B60030302107B5003308A00030303402E9
:1003B0000319DE29B214B21B3215F2293308B40036
:1003C0002030B300303035020319EA293214B21B51
:1003D000B214F229031D3214031DF2293408B500AA
:1003E0002030B4003219F929B218FC293218FF293B
:1003F000022A3308B70016213408B7001621350841
:10040000B70016213608B70016218A11332A0308CF
:100410001F398300193083169900A6309800903058
:100420008312980083161F149F141F159F11073005
:100430009C008312C82883168C16C03083128B044C
:100440000130B800B90004215A3003178D00003084
:100450008F0003100B300313B10042293008B100A4
:0A0460001830B200AF29202A630013
:02400E00713F00
:00000001FF
;PIC16F873A
;CRC=8854  CREATED="09-jul.-21 08:07"
