:1000000001308A00B32900000C1054396137F336EF
:10001000693AE9326E32EF1EA51844002C30840094
:100020000008031921280130A100A001A00B162807
:10003000A10B15284A30A000A00B1C281F28800BFC
:1000400013280800330EF039A0000F3006052004F5
:100050008600000006142C28061008000608A000E0
:10006000060E0F39A100080083160610861006112F
:10007000831286100F3083160605F038860083122F
:1000800006150000061400002E202108B3000610FB
:100090000000061400002E202108B20006100F30C8
:1000A0008316060586008312330EA000F030A005EB
:1000B00020083204A1002108B200B21B3A28301CEB
:1000C0008610301886140000061100000610310E4C
:1000D000B2000F30B2053208B300222031080F39C8
:1000E000B200B300222008002830A6000C30A70080
:1000F0000130A8000630A9000610861006110F3046
:100100008316060586000610861006110F3083122E
:10011000AC000E200130A5002508033C031C9828E4
:100120000330B30022200530AC000E20A50A8C2835
:100130000230B30022200530AC000E20A5012508B6
:10014000033C031CAE282630250784000008AA00C3
:10015000B0012A08B1003420A50A9F288A11C729B6
:100160002D0BB328B6284030AE00B728AE010130C1
:100170002C02AE072E088038AF00B0012F08B10066
:10018000342008002B08073A0319D0280B3A03192A
:10019000D528063A0319DD28023A0319E328E8288E
:1001A0000130AC00AD00B020ED28B0010130B1004D
:1001B00034200230AC000E20ED280130AC000230BB
:1001C000AD00B020ED28B0011030B1003420ED2892
:1001D0000130B0002B08B100342008000B08A60045
:1001E0008B13831603178C170C1400000000831266
:1001F0000313A61B8B170318252903170C087F3937
:100200000313A60003170D080313A70003170F0815
:100210000313A8002608AB00C220270803178D008F
:100220000313280803178F0003130B08A9008B136F
:10023000831603178C170C1400000000831203139D
:10024000A91B8B17A50B2529442903170C0D0E0D8F
:100250007F390313A60003170D080313A700031724
:100260000F080313A8002608AB00C22027080317B5
:100270008D000313280803178F008D0A03198F0AB6
:1002800003100313A50BEE288A11DA292C08A1010B
:100290002B0203184E292B08A0005A29A001083070
:1002A000AD00AB0DA00D2C0820020318A000A10D7D
:1002B000AD0B512908002030261E3030A70025083C
:1002C000A000A51F6B29A009A00A2008A5002D30B9
:1002D000A700A61726142508AB006430AC00462101
:1002E0002008A50030302107A8002508AB000A30FF
:1002F000AC00462130302007AA0030302107A90089
:100300002708A0003030280203198A29A614A61B4A
:1003100026159E292708A8002030A7003030290282
:10032000031996292614A61BA6149E29031D26141C
:10033000031D9E292808A9002030A8002619A529F8
:10034000A618A8292618AB29AE292708AB00C22079
:100350002808AB00C2202908AB00C2202A08AB0045
:10036000C2208A11DF2903081F3983001930831640
:100370009900A630980090308312980083161F14BD
:100380009F141F159F1107309C0083127428A4012D
:100390002408093C031CE82924080C1ECD299900D7
:1003A000043003178D0000308F000310103003134A
:1003B000A500EE282408A5001830A6005B2902300D
:1003C000A5009630AC000E20A50BE129A40AC8298F
:0403D000C7296300D6
:02400E00713F00
:00000001FF
;PIC16F873A
;CRC=9501  CREATED="09-jul.-21 08:10"
