:1000000000308A000428000003081F39830083168B
:100010001F149F141F159F111F308500003086008C
:1000200040308312A5007930A6002430A70030307C
:10003000A8001930A9001230AA000230AB007830B5
:10004000AC00AD011830AE00AF01831686018312FB
:1000500025088600051C4028051C2F282C28013067
:10006000AF072F08093C03183628AF0125302F07AA
:1000700084000008B00083168601831230088600D1
:040080002A286300C7
:02400E00713F00
:00000001FF
;PIC16F873
;CRC=D667  CREATED="22-jul.-21 23:28"
