:1000000000308A004C280000FF00030E8301A1008D
:100010007F08A0000A08A7008A01A00E0408A20019
:100020007708A3007808A4007908A5007A08A6003C
:10003000831383120B1E1E288B182F28220884007E
:100040002308F7002408F8002508F9002608FA001C
:1000500027088A00210E8300FF0E7F0E09008316F9
:1000600086100230831286068B108A111E282830D3
:1000700084008313000803194B280130F800F701AE
:10008000F70B4028F80B3F284A30F700F70B4628BB
:100090004928800B3D28080003081F3983000730DA
:1000A0009F00831301308316860083120B1683167C
:1000B0000117C03083128B048316061183120615B4
:1000C000FA30A80037208316061183120611FA3081
:0800D000A80037205C28630042
:02400E00613F10
:00000001FF
;PIC16F628
;CRC=8EBE  CREATED="10-jun.-21 15:59"
