:1000000000308A0019280000213084008313000882
:10001000031918280130F800F701F70B0D28F80B29
:100020000C284A30F700F70B13281628800B0A28F3
:10003000080003081F39830007309F008313003036
:10004000831686008601403083128600C830A100E6
:10005000042083168601793083128600C830A100FF
:10006000042083168601243083128600C830A10044
:10007000042083168601303083128600C830A10028
:10008000042083168601193083128600C830A1002F
:10009000042083168601123083128600C830A10026
:1000A000042083168601023083128600C830A10026
:1000B000042083168601783083128600C830A100A0
:1000C00004208316860183128601C830A100042013
:1000D00083168601183083128600C830A1000420E0
:0600E000831622286300D4
:02400E00613F10
:00000001FF
;PIC16F628A
;CRC=FAC8  CREATED="22-jul.-21 09:53"
