:1000000001308A0066290000A0266F3A6F3920333C
:100010007537E3346F376137E4370000493DF13A13
:10002000E93272326100A0266F3A6F39203375379A
:10003000E3346F376137E4370001C432F23263349E
:100040006100CD37F4377210E63A65396100C43289
:10005000A0396539F634E3346F002E308400831301
:100060000008031941280130F800F701F70B362882
:10007000F80B35284A30F700F70B3C283F28800B57
:1000800033280800340EF039F7000F3006057704E6
:100090008600000006144C28061008000608F70029
:1000A000060E0F39F8000800831606108610061198
:1000B000831286100F3083160605F03886008312EF
:1000C00006150000061400004E207808B400061043
:1000D0000000061400004E207808B30006100F3010
:1000E0008316060586008312340EF700F030F705FC
:1000F00077083304F8007808B300B31B5A28311C82
:100100008610311886140000061100000610320E09
:10011000B3000F30B3053308B400422032080F3962
:10012000B300B400422008002830AA000C30AB0015
:100130000130AC000630AD000610861006110F30FD
:100140008316060586000610861006110F308312EE
:10015000AE002D200130A9002908033C031CB8285B
:100160000330B40042200530AE002D20A90AAC288F
:100170000230B40042200530AE002D20A90129082C
:10018000033C031CCF282A3029078400831300086E
:10019000AE00B1012E08B2005420A90ABF288A116E
:1001A0000A1277292E0BD528D8284030AF00D9283D
:1001B000AF0101302D02AF072F088038B000B10128
:1001C0003008B200542008002C08073A0319F2281E
:1001D0000B3A0319F728063A0319FF28023A0319C4
:1001E00005290A290130AD00AE00D2200F29B10146
:1001F0000130B20054200230AE002D200F29013012
:10020000AD000230AE00D2200F29B1011030B20093
:1002100054200F290130B1002C08B20054200800EE
:100220000B08A9008B13831603178C170C140000FE
:10023000000083120313A91B8B1703170C087F39C7
:10024000031964290313A90003170D080313AA0057
:1002500003170F080313AB002908AC00E4202A0899
:1002600003178D0003132B0803178F0003130B08CC
:10027000AC008B13831603178C170C1400000000BE
:1002800083120313AC1B8B1703170C0D0E0D7F3954
:10029000031964290313A90003170D080313AA0007
:1002A00003170F080313AB002908AC00E4202A0849
:1002B00003178D0003132B0803178F008D0A0319F2
:1002C0008F0A0313102903170313080003081F39AB
:1002D0008300FF30A000A201A10183161F149F1408
:1002E0001F159F1107309C008313831294281F3021
:1002F00083168500003087008312A0000A30A30017
:100300000930A4000530A5000630A60083160514A8
:100310008312051CBE290130AD00AE00D22004308E
:1003200003178D0000308F00031310210130AD0042
:100330000230AE00D2200E3003178D0000308F0047
:1003400003131021A7012708033C031CBD292330F8
:100350002707840083130008A9000030A00083163B
:1003600087018312290887000230A900FA30AE0005
:100370002D20A90BB629A70AA329162A83168514AE
:100380008312851CF8290130AD00AE00D220133055
:1003900003178D0000308F00031310210130AD00D2
:1003A0000230AE00D2201D3003178D0000308F00C8
:1003B000031310210530A8002808003C0318F72972
:1003C00001302802233E840083130008A900003076
:1003D000A000831687018312290887000230A90034
:1003E000FA30AE002D20A90BF029A803DC29162A2B
:1003F0000130AD00AE00D220213003178D00003057
:100400008F00031310210130AD000230AE00D22066
:10041000273003178D0000308F00031310210230A6
:10042000A900FA30AE002D20A90B112A86296300FD
:02400E00713F00
:00000001FF
;PIC16F876A
;CRC=2FC9  CREATED="22-jun.-21 08:54"
