:1000000000308A0019280000223084008313000881
:10001000031918280130F800F701F70B0D28F80B29
:100020000C284A30F700F70B13281628800B0A28F3
:10003000080003081F39830007309F008313003036
:100040008316860086010130831286000230A100EB
:10005000FA30A2000420A10B282883168601033061
:10006000831286000230A100FA30A2000420A10B06
:10007000342883168601023083128600A100FA30EC
:10008000A2000420A10B3F288316860106308312AC
:1000900086000230A100FA30A2000420A10B4B28F8
:1000A000831686010430831286000230A100FA30E4
:1000B000A2000420A10B5728831686010C3083125E
:1000C00086000230A100FA30A2000420A10B6328B0
:1000D000831686010830831286000230A100FA30B0
:1000E000A2000420A10B6F28831686010930831219
:1000F00086000230A100FA30A2000420A10B7B2868
:06010000831622286300B3
:02400E00613F10
:00000001FF
;PIC16F628A
;CRC=B282  CREATED="22-jul.-21 12:20"
