:1000000000308A001828000012308400000803190C
:10001000172801308D008C018C0B0C288D0B0B28C0
:100020004A308C008C0B12281528800B09280800F8
:1000300003081F398300003083168600860183126F
:100040008601831606108312061404309100FA30DC
:1000500092000420910B27288316061083120610A5
:10006000C830920004208316861083128614043050
:100070009100FA3092000420910B392883168610E3
:0E00800083128610C8309200042021286300ED
:02400E00F13F80
:00000001FF
;PIC16F84A
;CRC=C9D6  CREATED="05-jul.-21 15:42"
