:1000000000308A001828000012308400000803190C
:10001000172801308D008C018C0B0C288D0B0B28C0
:100020004A308C008C0B12281528800B09280800F8
:1000300003081F39830083160610831206148316E3
:1000400086138312861702309100FA309200042042
:10005000910B2528831686108312861483160613A7
:100060008312061702309100FA3092000420910B9F
:1000700034288316061183120615831686128312FE
:10008000861602309100FA3092000420910B43282A
:10009000831686118312861583160612831206169E
:1000A00002309100FA3092000420910B52288316FE
:1000B000061083120610831686108312861083168C
:1000C0000611831206118316861183128611831678
:1000D0000612831206128316861283128612831664
:1000E0000613831206138316861383128613831650
:1000F00086118312861583160612831206160230A5
:100100009100FA3092000420910B81288316061189
:10011000831206158316861283128616023091000A
:10012000FA3092000420910B9028831686108312D7
:100130008614831606138312061702309100FA30D4
:1001400092000420910B9F28831606108312061438
:10015000831686138312861702309100FA309200BC
:100160000420910BAE288316061083120610831606
:1001700086108312861083160611831206118316C9
:1001800086118312861183160612831206128316B5
:1001900086128312861283160613831206138316A1
:0A01A0008613831286131B286300E8
:02400E00F13F80
:00000001FF
;PIC16F84A
;CRC=18BA  CREATED="31-may.-21 15:57"
