:1000000003308A00C42B0000FF00030E8301A1000F
:100010000A08A0008A010408A2007708A300780853
:10002000A4007908A5007A08A60003170D08031399
:10003000A70003170F080313A80003170C080313E6
:10004000A90003170E080313AA00831383128B1E43
:100050002B280B194C28220884002308F7002408B9
:10006000F8002508F9002608FA00270803178D0074
:100070000313280803178F000313290803178C00A4
:1000800003132A0803178E00031320088A00210E89
:100090008300FF0E7F0E09008A110A126528C837F7
:1000A000F2303A1025322532BA12E412641D25329C
:1000B00025320000C837F2303A1025322532BA1204
:1000C000E412641D253225320001AB03EE308100BD
:1000D000AB08031D9528AD0AD930AB002D080A3CAA
:1000E000031D8C28AD01AC0A2C08063C031D8C288E
:1000F000AC01AF0A2F080A3C031D8C28AF01AE0AE1
:100100002E08063C031D8C28AE01B10A31080A3CBA
:10011000031D8C28B00AB101300B95283108033C2F
:10012000031D9528B0010130B1000B118A110A128C
:100130002B2872308400831300080319AD28013086
:10014000F800F701F70BA228F80BA1284A30F700B6
:10015000F70BA828AB28800B9F2808007D18B22831
:100160000612B328061683160612FD18BB28831242
:100170008612BD28831683128616831686127D1971
:10018000C52883120613C728831683120617831601
:100190000613FD19CF2883128613D12883168312E4
:1001A0008617831686130000831286158316861120
:1001B000D928831286118316861183120800FE0146
:1001C0008316061600308312061A0130FE048316C9
:1001D000861600308312861A0130F7000310F70DDF
:1001E0007708FE048316061700308312061B0130C1
:1001F000F700F70DF70DFC30F7057708FE048316BE
:10020000861700308312861B0130F700F70DF70DBB
:10021000F70DF830F7057708FE047E08F8000800AF
:100220008316861186100611831286108316861097
:1002300006168616061786178312061583160611EC
:100240000000831286158316861100008312DF20BA
:100250007808FD008611831686110000831286152A
:100260008316861100008312DF207808FC008611B7
:100270008316861106128612061386137D0EF7006A
:10028000F030F70577087C04F8007808FC00FC1BC8
:100290001829F608031D5029831286105229831647
:1002A00083128614831686100000831206118316AB
:1002B0000611000083128611831686117B0EFC0046
:1002C0000F30FC057C08FD008312AE207B080F393F
:1002D000FC00FD00AE2008002830EB000C30EC00E4
:1002E0000130ED000630EE00861183168611831270
:1002F00086108316861083120611831606110612C5
:100300008612061386138611861006110F30F2002E
:10031000831299200130EA006A08033C031C9829E3
:100320000330FD00AE200530F2009920EA0A8C2946
:100330000230FD00AE200530F2009920EA016A0883
:10034000033C031CAF296B306A0784008313000849
:10035000EF00F6016F08FB001021EA0A9F298A11BD
:100360000A122C2CEA0DEA0DEA0DF830EA053830B5
:10037000EA056A084038EE00F6016E08FB0010211D
:10038000ED016D08073C031CD8296C08FA006B08C6
:10039000EB0A0319EC0A840083137A188317000808
:1003A000EE000130F6006E08FB001021ED0AC129B5
:1003B0000800730BDC29DF294030F400E029F40148
:1003C00001307202F40774088038F500F6017508F0
:1003D000FB00102108007108073A0319F9290B3AAC
:1003E0000319FE29063A0319062A023A03190C2AB0
:1003F000112A0130F200F300D921162AF60101304A
:10040000FB0010210230F2009920162A0130F20080
:100410000230F300D921162AF6011030FB0010211A
:10042000162A0130F6007108FB00102108000B08A5
:10043000EC008B13831603178C170C1400000000BC
:1004400083120313EC1B8B1703184E2A03170C0897
:100450007F390313EC0003170D080313ED00031796
:100460000F080313EE006C08F100EB216D08031771
:100470008D0003136E0803178F0003130B08EF00A2
:100480008B13831603178C170C14000000008312C3
:100490000313EF1B8B17EB0B4E2A6D2A03170C0D62
:1004A0000E0D7F390313EC0003170D080313ED0045
:1004B00003170F080313EE006C08F100EB216D0821
:1004C00003178D0003136E0803178F008D0A03199D
:1004D0008F0A03100313EB0B172A08007208F801A8
:1004E00071020318762A7108F700822AF701083092
:1004F000F300F10DF70D720877020318F700F80DFD
:10050000F30B792A080020306C1E3030ED006B08A8
:10051000F700EB1F932AF709F70A7708EB002D3055
:10052000ED00EC176C146B08F1006430F2006E22E1
:100530007708EB0030307807EE006B08F1000A30E6
:10054000F2006E2230307707F00030307807EF008D
:100550006D08F70030306E020319B22AEC14EC1B60
:100560006C15C62A6D08EE002030ED0030306F02A9
:100570000319BE2A6C14EC1BEC14C62A031D6C1460
:10058000031DC62A6E08EF002030EE006C19CD2A3C
:10059000EC18D02A6C18D32AD62A6D08F100EB216A
:1005A0006E08F100EB216F08F100EB217008F100FB
:1005B000EB2108000130F200F300D9214F3003177E
:1005C0008D0000308F00031006300313EB0017225C
:1005D0003008EB001830EC0083223108EB001830B3
:1005E000EC0083223A30F100EB212E08EB001830AA
:1005F000EC0083222F08EB001830EC0083223A3005
:10060000F100EB212C08EB001830EC0083222D08C0
:10061000EB001830EC0083220130F2000230F300CE
:10062000D921F101EB210130F100EB210230F10081
:10063000EB210330F100EB210430F100EB2101301C
:10064000F100EB210230F100EB210330F100EB214E
:100650000430F100EB210130F100EB210230F10018
:10066000EB210330F100EB210430F100EB210130EC
:10067000F100EB210230F100EB210530F100EB211C
:10068000EA016A08103C031CC12B0130F200F300A0
:10069000D9215A3003178D0000308F000310063027
:1006A0000313EB0017223008EB001830EC00832214
:1006B0003108EB001830EC0083223A30F100EB21D6
:1006C0002E08EB001830EC0083222F08EB001830C6
:1006D000EC0083223A30F100EB212C08EB001830BB
:1006E000EC0083222D08EB001830EC0083226A080E
:1006F000F2000230F300D9212030F100EB21F101AA
:10070000EB21C830F20099206A08103C031DBF2B72
:10071000F2010230F300D9210630F100EB2106305E
:10072000F100EB210630F100EB210630F100EB2166
:100730000630F100EB210630F100EB210630F1002C
:10074000EB210630F100EB210630F100EB21063001
:10075000F100EB210630F100EB210630F100EB2136
:100760000630F100EB210630F100EB210630F100FC
:10077000EB210630F100EB21C830F2009920EA0AA3
:10078000412B8A110A12612C03081F398300D930CA
:10079000AB000530AC00AD00AE000930AF00013059
:1007A000B0000230B10083161F149F141F159F1153
:1007B00007309C00831304308312B200B3001B3057
:1007C000B4000430B500B600B701B801B901BA01F0
:1007D0001930BB000630BC00BD01BE01BF01C00125
:1007E000C101C2011330C3000C30C400C501C601F1
:1007F000C701C801C901CA010630CB001930CC00BD
:10080000CD01CE01CF01D001D101D2010C30D300F6
:100810001330D400D501D601D701D801D901DA01AE
:100820001830DB000430DC000E30DD001F30DE004D
:10083000DF000E30E000E1011530E2000A30E30095
:100840001530E4000A30E5001530E6000A30E70014
:100850001530E800E9016C29EA01EC013230EB00C7
:10086000B2210130EA00EC013A30EB00B221023053
:10087000EA00EC014230EB00B2210330EA00EC0167
:100880004A30EB00B2210430EA00EC015230EB00B8
:10089000B2210530EA00EC015A30EB00B2210630FB
:1008A000EA00EC016230EB00B221003083168600D2
:1008B0000108C0390738810083128B16C0308B04C1
:0608C000DA2A602C63003F
:02400E00713F00
:00000001FF
;PIC16F877A
;CRC=53F2  CREATED="20-jun.-21 20:20"
