:1000000006308A00002E00002028EF39E931E93758
:100010006E00A012661047396132EF3980275330E5
:10002000840083130008031923280130F800F70126
:10003000F70B1828F80B17284A30F700F70B1E2883
:100040002128800B152808005A182828061229286C
:100050000616831606128312DA1830288612312803
:1000600086168316861283125A19382806133928E1
:100070000617831606138312DA19402886134128BF
:100080008617831686130000831286158316861141
:100090004928831286118316861183120800DB011A
:1000A0008316061600308312061A0130DB0483160D
:1000B000861600308312861A0130F7000310F70D00
:1000C0007708DB048316061700308312061B013005
:1000D000F700F70DF70DFC30F7057708DB04831602
:1000E000861700308312861B0130F700F70DF70DDD
:1000F000F70DF830F7057708DB045B08F800080017
:1001000083168611861006118312861083168610B8
:10011000061686160617861783120615831606110D
:1001200000008312861583168611000083124F206B
:100130007808DA008611831686110000831286156E
:1001400083168611000083124F207808D90086118B
:1001500083168611061286120613861383125A0E10
:10016000F700F030F70577085904F8007808D9004F
:10017000D91FBC2883168828D708031DC1288610DC
:10018000C228861483168610000083120611831677
:100190000611000083128611831686118312580EF1
:1001A000D9000F30D9055908DA00242058080F3932
:1001B000D900DA00242008002830C6000C30C7001F
:1001C0000130C8000630C9008611831686118312DB
:1001D00086108316861083120611831606110612E6
:1001E0008612061386138611861006110F308312AD
:1001F000D3000F200130C5004508033C031C08292B
:100200000330DA0024200530D3000F20C50AFC2873
:100210000230DA0024200530D3000F20C501450844
:10022000033C031C1F294630450784008313000844
:10023000CA00D7014A08D8008020C50A0F298A11B0
:100240000A123A2E80308318CE06D301D4014A0810
:10025000D2004E08D20649080319122AD100F7002D
:100260004D0803191B2AD1020319B729031C75294C
:100270004E08D700D7174F08D6005008D500D40134
:100280000310D70CD60CD50CD40CD10B3F29D21FA0
:100290004C2953142F2A5310511053164C308400FC
:1002A0008313442A5312D21B5F29511C6A29D70C8D
:1002B000D60CD50CD40CF70A03192A2A6A29D71BA5
:1002C0006D290310D40DD50DD60DD70DF7030319E5
:1002D0002A2A5F295317D72953134A08D200D21F5D
:1002E0007329D717232AD713232A4D08D100F700E3
:1002F0004908D1024A08D700D7174B08D6004C0846
:10030000D500D4010310D70CD60CD50CD40CD10BCE
:100310008129D21F8E29D3142F2AD3105110D3161E
:10032000503084008313442AD312D21BA129511CBC
:10033000AC29D70CD60CD50CD40CF70A03192A2AF1
:10034000AC29D71BAF290310D40DD50DD60DD70D71
:10035000F70303192A2AA129D317D729D3134E0843
:10036000D200D21FB529D717232AD713232A4E0824
:10037000D700D7174F08D6005008D500D21FC42980
:10038000D71353152F2A5311D40151104C30840028
:100390008313442AD21BED294A08D200511CD729C5
:1003A000D70CD60CD50CD40CF70A03192A2AD41F63
:1003B000E829D50A031DE829D60A031DE829D70A2A
:1003C000031DE829D70CD60CD50CF70A03192A2AE5
:1003D000531B6C29D31BAE290C2A8030D706D71F9C
:1003E000F5292F2A4E08D200022A4A08D200D7083F
:1003F000031D022AD608031D022AD508031D022A5E
:10040000F701232AD71B0C2A0310D40DD50DD60DC6
:10041000D70DF70B022A2A2AD21F102AD717232A10
:10042000D713232A4D08F7004E08D7004F08D600EF
:100430005008D500232A4908F7004A08D7004B087E
:10044000D6004C08D5005708F8005608F9005508A2
:10045000FA00622AF701F801F901FA01622AD401CF
:10046000D509D609D709D409D40A031D3D2AD50ACE
:10047000031D3D2AD60A0319D70A53184B29D3184E
:100480008D295319C329F2290008D507031C4E2AC8
:10049000D60A031D4E2AD70A0319511484030008F3
:1004A000D607031C562AD70A0319511484030008DF
:1004B000801F803AD70703185114531A5229D31AB0
:1004C0009429CA29080049080319282BD5004D088A
:1004D0000319282BD502031C722A7F30D507031875
:1004E000282B782A8130D502031C282B0319282BAE
:1004F0005508F700F801F901FA01D4014A08D300C0
:10050000D3174B08D2004C08D1001930D500500841
:10051000D10203189B2A0130D20203189B2AD3026E
:1005200003189B2AD40203189B2AD40AD30AD20A9E
:100530005008D107CD2A4F08D2020318B62A01303D
:10054000D3020318B62AD4020318B62AD40AD30A4F
:100550004F08D2075008D107031CCD2AD20A031D29
:10056000CD2AD30A031DCD2AD40ACD2A4E088038BD
:10057000D3020318CC2A0130D4020318CC2AD40A9F
:100580004E088038D3074F08D207031CAA2AD30A83
:10059000031DAA2AD40AAA2A7A14D50BD02ADB2A48
:1005A0000310D10DD20DD30DD40D0310FA0DF90D9A
:1005B000F80DD60D872A561CE32A0310F80CF90C07
:1005C000FA0CD60CE62AF7030319282BD61B0F2B9F
:1005D0000310D10DD20DD30DD40D5008D102031844
:1005E000FB2A0130D2020318FB2AD3020318FB2A8C
:1005F000D402031C1E2B4F08D2020318062B013015
:10060000D3020318062BD402031C1E2B4E0880387D
:10061000D30203180F2B0130D402031C1E2BFA0A3D
:10062000031D1E2BF90A031D1E2BF80A031D1E2B8A
:10063000F70A0319282BF80CF90CFA0C4A08D50014
:100640004E08D506D51F262BF8172C2BF8132C2B6C
:10065000F701F801F901FA0108008E30F7004A08A5
:10066000F8004908F900FA01F808031D412B790840
:10067000F800F9010830F702F808031D412BF701D3
:10068000492B0310F81B482BF90DF80DF703412BEC
:10069000F813080052080319BA2BDA005608031998
:1006A000BA2BDA0703185B2B7F30DA02031CBA2B54
:1006B0000319BA2B5F2B8130DA070318BA2B5A08BB
:1006C000F700F801F901FA015308DE00DE175408BB
:1006D000DD005508DC001830DA00DB015C1C882BDB
:1006E0005908FA07031C7A2BF90A031D7A2BF80A1A
:1006F0000319DB175808F907031C812BF80A0319A3
:10070000DB175708D400D4175408F8070318DB1771
:10071000DB0DF80CF90CFA0CDE0CDD0CDC0C031014
:10072000DA0B6D2B0130F7070318BA2BF81B9F2B40
:10073000DE0DFA0DF90DF80DF7030319BA2BDE1FC4
:10074000B02BFA0A031DB02BF90A031DB02BF80ACF
:10075000031DB02BF80CF90CFA0CF70A0319BA2B8D
:100760005308DB005708DB06DB1FB82BF817BE2B3E
:10077000F813BE2BF701F801F901FA0108008E30D9
:10078000F7004508F7024608F9004708F800F9178E
:10079000F7080319D62B0310F908031DD22BF8080C
:1007A0000319D62BF90CF80CF70BCB2BC61FDD2B3E
:1007B000F809F909F80A0319F90A8A110A12812FAE
:1007C000540BE32BE62B4030D500E72BD50101304D
:1007D0005302D50755088038D600D7015608D800EF
:1007E000802008005208073A0319002C0B3A03191D
:1007F000052C063A03190D2C023A0319132C182C58
:100800000130D300D400E0231D2CD7010130D800E3
:1008100080200230D3000F201D2C0130D300023085
:10082000D400E0231D2CD7011030D80080201D2CCF
:100830000130D7005208D800802008000B08C500FE
:100840008B13831603178C170C14000000008312FF
:100850000313C51B8B1703170C087F390319722C60
:100860000313C50003170D080313C60003170F0871
:100870000313C7004508D200F223460803178D0072
:100880000313470803178F0003130B08C8008B13CB
:10089000831603178C170C14000000008312031337
:1008A000C81B8B1703170C0D0E0D7F390319722C03
:1008B0000313C50003170D080313C60003170F0821
:1008C0000313C7004508D200F223460803178D0022
:1008D0000313470803178F008D0A03198F0A0313A8
:1008E0001E2C031703138A110A12A22F83187B2CC4
:1008F0005A3084008313F701F801F901FA01DA0193
:10090000DB01DC01DD0159085804570456040319C2
:10091000B92C2030DE000310D20DD30DD40DD50D2F
:10092000DA0DDB0DDC0DDD0D59085D02031DA22C77
:1009300058085C02031DA22C57085B02031DA22C61
:1009400056085A02031CB32C5608DA025708031C37
:10095000570FDB025808031C580FDC025908031C10
:10096000590FDD020314F70DF80DF90DFA0DDE0B2A
:100970008B2C5A088000840A5B088000840A5C087B
:100980008000840A5D08800008000408CA00490845
:10099000CC000319E42C4808D5004708D4004608C9
:1009A000D3004508D200D901D8012030D7008230C9
:1009B000D6004A237A08C8007908C7007808C6001C
:1009C0007708C500CC0BCB2C4808D5004708D400CD
:1009D0004608D3004508D2005208B63CD200FA01BE
:1009E0005308D600D3170310D30CD40CD50CFA0C33
:1009F000F90CF80CF70CD20BF32CD61F0A2DF709C3
:100A0000F809F909FA09F70A0319F80A0319F90AA2
:100A10000319FA0A7A08C8007908C7007808C600DE
:100A20007708C500C81F212DCA03CA16C509C60903
:100A3000C709C809C50A0319C60A0319C70A031951
:100A4000C80A3B30D1009A30D000CA30CF00CE0166
:100A50000A30CC0049080319CA0A831445308400BF
:100A600083134808D5004708D4004608D30045083A
:100A7000D2005108D9005008D8004F08D7004E08BE
:100A8000D60076247808F708031D592D490A4C0230
:100A90000319592D4A0803195B2D0F394C0203190C
:100AA000532D03188B2DCA1B8B2D4A1B5B2D203019
:100AB000872D2030CA05CA1E692DCA124908031D98
:100AC000CA037708CA002D30D200F2234A08F70083
:100AD000CA0149084C02031D772D7708CA002E3041
:100AE000D200F2234A08F7002030CA050030303027
:100AF000CA1E872DCA124908031DCA037708CA00F7
:100B00002D30D200F2234A08F700CA013030F7072F
:100B10007708D200F22383105108D5005008D40082
:100B20004F08D3004E08D200D901D801D7010A30AE
:100B3000D60076247A08D1007908D0007808CF0052
:100B40007708CE00CC0B2D2D8A110A12B72F0B0877
:100B5000C6008B13831603178C170C1400000000BB
:100B600083120313C61B8B170318DE2D03170C0803
:100B70007F390313C60003170D080313C7000317BB
:100B80000F080313C8004608D200F22347080317D2
:100B90008D000313480803178F0003130B08C900C7
:100BA0008B13831603178C170C140000000083129C
:100BB0000313C91B8B17C50BDE2DFD2D03170C0D61
:100BC0000E0D7F390313C60003170D080313C7006A
:100BD00003170F080313C8004608D200F223470882
:100BE00003178D000313480803178F008D0A03199C
:100BF0008F0A03100313C50BA72D8A110A12C12FE8
:100C000003081F398300A501A401A301A201A901C2
:100C1000A801A701A601AD01C030AC007F30AB0038
:100C20008830AA00B101B001AF01AE01B501B40135
:100C30007A30B3008730B200B901B8017A30B7001A
:100C40008630B600BD01BC013430BB008630BA002E
:100C5000C101C001BF01BE01FF30C200C401C30118
:100C600083161F149F141F159F1107309C008313B8
:100C70008312DC2883161F109F141F159F151F1346
:100C800083121F179F1783169F1783121F1400309C
:100C9000F8001F08C73978049F000030F8000638B4
:100CA0009200FF308316920083124211420883168D
:100CB0008700831207110C3097001F151F195E2E35
:100CC0001E08F90083161E08F80079088312A10097
:100CD0007808A00083143508CC003408CB00330812
:100CE000CA003208C9003908D0003808CF003708D8
:100CF000CE003608CD0022217A08C8007908C70046
:100D00007808C6007708C50083142D08CC002C088D
:100D1000CB002B08CA002A08C9003108D0003008CF
:100D2000CF002F08CE002E08CD0022214808CC008D
:100D30004708CB004608CA004508C9007A08D00019
:100D40007908CF007808CE007708CD0063227A08B2
:100D5000C8007908C7007808C6007708C5002108D0
:100D6000CA002008C9002D2383147A08CC00790812
:100D7000CB007808CA007708C9003108D0003008D5
:100D8000CF002F08CE002E08CD0022214808D50024
:100D90004708D4004608D3004508D2007A08D90095
:100DA0007908D8007808D7007708D6004A2383103E
:100DB0003908CC003808CB003708CA003608C9000B
:100DC0007A08D0007908CF007808CE007708CD00E7
:100DD00022217A08A9007908A8007808A7007708D6
:100DE000A60083143D08CC003C08CB003B08CA0099
:100DF0003A08C9004108D0004008CF003F08CE00A3
:100E00003E08CD0022217A08C8007908C70078087A
:100E1000C6007708C50083142D08CC002C08CB0031
:100E20002B08CA002A08C9003108D0003008CF00BA
:100E30002F08CE002E08CD0022214808CC004708FC
:100E4000CB004608CA004508C9007A08D0007908D6
:100E5000CF007808CE007708CD0063227A08C8005A
:100E60007908C7007808C6007708C5002108CA00BD
:100E70002008C9002D2383147A08CC007908CB0000
:100E80007808CA007708C9003108D0003008CF00C0
:100E90002F08CE002E08CD0022214808D500470893
:100EA000D4004608D3004508D2007A08D900790852
:100EB000D8007808D7007708D6004A238310410865
:100EC000CC004008CB003F08CA003E08C9007A08A1
:100ED000D0007908CF007808CE007708CD00222115
:100EE0007A08A5007908A4007808A3007708A20072
:100EF0002908C8002808C7002708C6002608C5001A
:100F0000BF2B7908C6007808C500C60CC50CC60CF6
:100F1000C50CC60C45089500C60C460C3039F700C8
:100F20001708CF39770497001430D3000F20013011
:100F3000D300D400E023043003178D0000308F006D
:100F400003131E2C0130D3000230D400E0232030E4
:100F5000D200F223893084002508C8002408C70085
:100F60002308C6002208C5000230C900C52C0A307B
:100F700003178D0000308F00031407300313C500E2
:060F8000A72D5D2E6300A9
:02400E00713F00
:00000001FF
;PIC16F876A
;CRC=9BBB  CREATED="27-jul.-21 14:04"
